:020000040800F2
:1000000068610020BDC90008E9C80008EBC8000805
:10001000EDC80008EFC80008F1C8000800000000A3
:10002000000000000000000000000000073200088F
:10003000F3C8000800000000B5310008F5C800084A
:1000400005CA000809CA00080DCA000811CA00083C
:1000500015CA000819CA00081DCA000821CA0008EC
:1000600025CA000829CA00082DCA000831CA00089C
:1000700035CA000839CA00083DCA000841CA00084C
:1000800045CA000849CA00084DCA000851CA0008FC
:1000900055CA000859CA00085DCA000861CA0008AC
:1000A00065CA000869CA00086DCA000871CA00085C
:1000B00075CA000879CA00087DCA000881CA00080C
:1000C00085CA000889CA00088DCA000891CA0008BC
:1000D00095CA0008F9C8000899CA00089DCA000816
:1000E000A1CA0008A5CA0008A9CA000800000000AB
:1000F0000000000000000000000000000000000000
:100100000000000000000000ADCA0008B1CA0008ED
:10011000B5CA0008B9CA0008BDCA0008FFC800086F
:10012000C1CA0008C5CA0008C9CA0008CDCA00086B
:10013000D1CA00080000000000000000D5CA000875
:10014000D9CA0008DDCA0008E1CA000805C90008CC
:1001500003E011F8013B00F8013B13465A1E002B47
:10016000F7D17047130003D00A46194601F036BC98
:10017000704700E0401C0278130018BF8A42F9D192
:1001800010467047D0F80C0201F070BC002818BF70
:100190000C2909D00B2918BF092905D00F291CBF2C
:1001A000D0F80C0201F06CBC7047F0B54FF400744D
:1001B0000444002200230C25484805FB03F60644AE
:1001C00037686FB1D4F800C0674502BF7768D4F8CC
:1001D00008C0674502BF3689E788BE4201D103E007
:1001E00001225B1C022BE8D3022B04D16AB902293D
:1001F0000BD01220F0BD31B905FB03F10844408952
:10020000B0F5807F01D11020F0BD0020F0BDF0B529
:100210004FF4007318440368D0F808C02F4D002233
:100220000C2404FB02F62E4437689F4204BF776813
:10023000674502BF3689C788BE4202D0521C022AD7
:10024000EFD3022A11D12E680022002E1EBF0122F8
:10025000EE68002E0FD104FB02F62E443360836853
:100260007360C08830810020708104FB02F0284454
:10027000438929B10BB10020F0BD4FF4807100E03B
:10028000591C4181501CF0BD10B5401E022814D2EB
:100290000C21484311490A185389B3F5807F01D0D6
:1002A0001C0002D10023538103E05B1E53819BB2EB
:1002B0000BB900220A50002010BD022010BD10B55D
:1002C0000021064A0C234B43D458844204BF002427
:1002D000D450491C0229F5D310BD0000A0B900205C
:1002E0002DE9F843814609F201260024F078D0B1C7
:1002F0004FF4077009EB0007D7F8148000F016F8E8
:1003000008B101240FE0F070B8683968A8EB00006C
:10031000884208D2B57804E03868804400F006F8D6
:100320006D1E022DF8D22046BDE8F28330780123FD
:100330004246494601F0C6BB70B504460D46D4F8A6
:1003400030020026854211D02046FFF7C9FF060083
:100350000CD194F8010201232A46214601F0ACFB9E
:1003600010B14FF0FF350126C4F83052304670BD51
:1003700070B50446FFF7B4FF050042D14FF4F270A8
:100380002618307F032804BF94F80502012831D1D4
:1003900001F0F7FA01F00CFB522020706070612030
:1003A000A0704120E07001F0FBFA4FF4047020448B
:1003B0004168317141680904090E71714168090C85
:1003C000B1714168090EF171016831720168090467
:1003D000090E71720168090CB1720168090EF1729F
:1003E00001694A1C02622146707F01F06BFB00200C
:1003F00084F805020022707F002101F071FB00B13A
:100400000125284670BD4FF406720244891E136808
:100410009B1E994201D30020704790F80202526956
:1004200000FB012070472DE9F8430D46022D0446DC
:1004300052D34FF400702618B06985424CD2307800
:1004400001284FF0FF3804D046D303282DD01DD308
:1004500042E0706A05EB550700F0C7FD00283DD16A
:10046000C7F308007F1C14F80090706A00F0BDFD0F
:10047000002833D1C7F30800205C49EA0021E807CF
:1004800054BFC1F30B084FEA111827E0706A00EB64
:10049000152100F0ACFD08BB6800C0F30800204443
:1004A0004178007840EA012818E0706A00EBD51125
:1004B00000F09DFD90B9A800C0F3080020448278A8
:1004C000C178120442EA01614278007841EA0221CF
:1004D000084320F0704801E04FF001084046BDE8B5
:1004E000F2832DE9F0410C46022C8046154667D375
:1004F0004FF4007008EB0006B069844260D2307897
:10050000012804D05CD303283ED02CD358E0706A75
:1005100004EB540700F057F8010052D1C7F308006C
:100520007F1C08EB000114F001041DBF087800F0E7
:100530000F0040EA05102846087001203071706AEB
:1005400000F041F801003CD1C7F3080141440CB16F
:100550002A0906E00A782B0A02F0F00203F00F03E2
:100560001A430A7029E0706A00EB14214046FFF735
:10057000E3FE010025D16100C1F3080141440D7083
:100580002D042A0E4A7018E0706A00EBD411404620
:10059000FFF7D2FE010014D1A100C1F308014144CC
:1005A000CA78120602F0704215432A04120E4A70ED
:1005B0000D702A0C8A702A0ECA700121317100E078
:1005C0000220BDE8F08100EB57214046B4E62DE95A
:1005D000F0418846B8F1020F04460ED34FF405707F
:1005E00025186868804508D2002741462046FFF755
:1005F0001AFF06001FD0012E01D102271BE016F1C1
:10060000010F01D1012716E0002241462046FFF7E5
:1006100068FF07000FD1286810F1010F07D0401CB8
:10062000286094F8050240F0010084F80502B04605
:1006300068688045D9D33846BDE8F0812DE9F0419E
:1006400080460D004FF4047008EB000606D13468B4
:1006500014B1B06884420FD301240DE04046FFF787
:10066000E2FE022838BF01203ED310F1010F3BD03B
:10067000B168884238D32C462746B0687F1C874231
:1006800002D30227022C27D339464046FFF7CBFE80
:10069000D8B96FF0704239464046FFF722FF28B9BB
:1006A0002DB13A4629464046FFF71BFFB0B97068A6
:1006B000376010F1010F16D0401E706098F80502E7
:1006C00040F0010088F805020DE010F1010F18BF9D
:1006D000012809D0A742D0D1002005E001280CBF95
:1006E0004FF0FF3701273846BDE8F0814FF4007224
:1006F0001044490A426A006890F80202121DB1FBD8
:10070000F0F001E0401A0832116809B90020704782
:100710008842F7D2516808187047F8B50C464FF474
:1007200000714518AE68EC80012E2BD02868084473
:1007300081698E4226D21EB90178032901D1866AC9
:1007400026B901898C421DD2806A19E080780701A0
:1007500000E0E41B2868BC4231460FD3FFF763FE7C
:10076000064616F1010F01D10120F2BD022E09D378
:100770002868D0F818028642EBD303E0FFF743FE67
:10078000EE6008B90220F2BD00EB1410286161018F
:10079000286801F4F071084468610020F2BDF8B5E2
:1007A0000F464FF400714418E088451C28041CBF14
:1007B0002069002820D015F00F0F5FD1401C206168
:1007C0002068E16800F2022219B9D088854255D329
:1007D00012E01278521E12EA151F4FD1FFF723FEC6
:1007E0000646022E13D316F1010F3BD02068D0F835
:1007F00018128E423DD30FB90420F2BDE168FFF715
:100800001DFF060001D10720F2BD012E01D10220FB
:10081000F2BD16F1010F25D02068FFF761FD08BB7E
:1008200020684FF4007200F00FFA20683146FFF79D
:10083000EAFD2168C1F83002002706E02068D0F800
:100840003012491CC0F830127F1C206800F20221CF
:100850000A78974208D2012088702068FFF740FD8F
:100860000028EBD00120F2BDD0F83012C91BC0F82F
:100870003012E660314600F020FF206169012068F7
:10088000E58001F4F071084460610020F2BD90F849
:100890000002CA7E8B7E032843EA022205D1487DEE
:1008A000097D41EA002042EA004210467047817605
:1008B0000A04090C0175120E090AC27641757047C7
:1008C0007CB5164604461D460B22FFF741FC062D5B
:1008D00012D3308880B136F8020B102100F00102EB
:1008E00002EB45054008EA0344BF85F4883585F0EE
:1008F0002105491EF2D1ECE7072005F00F02303246
:10090000D2B23A2AA8BFD21D0DF80020401E2D09F0
:10091000F3D17E220DF80020002200E0521C82421A
:1009200002D2A35C202BF9D113465A1C08283ABFE7
:100930001DF80050401C2025E554082AF4D373BD4F
:1009400000210B220B46C90101EB530110F8013BBA
:100950005918521EC9B2F5D1084670472DE9F14F1A
:1009600082B00021FFF7D9FE0028804616D1FF2073
:1009700000904FF40071029844184FF6FF7AFF2759
:10098000A4F824A021692068FFF7D6FC002880463F
:1009900004D16669307810B94FF0040879E0F17A33
:1009A000E52801F03F0169D00A0702D50F2965D17A
:1009B00001E00F294AD1D4F82080B8F1000F60D0AF
:1009C000410606D5717B009100F0BF00E188A1844B
:1009D0000746F9B2884202BF0098717B884222D153
:1009E000307820F04000401E0D2101FB00F9002569
:1009F0004FF0010B0FF23C20405D3118305C49781C
:100A0000BBF1000F40EA01200FD001F095F8B9F1D9
:100A1000FF0F834607D238F8190001F08DF883459F
:100A200009F1010903D0FF272BE05045FBD16D1CD4
:100A30000D2DDFD33078400606D5BBF1000F1CBF6B
:100A400038F819000028EED17F1E1AE0FFB22FB946
:100A5000009F3046FFF774FF87421AD0A069C17A21
:100A6000C9070BD40B2100220B46591E2BB116F8D7
:100A7000012B10F8013BD21AF6D052B1FF27A4F88F
:100A800024A000210298FFF78AFE002880463FF448
:100A900079AF4046BDE8FE8F2DE9FE4F81464FF409
:100AA000007009EB00050C22AE692F6A31466846DA
:100AB000FFF74EFB9DF80B00C0071ED50020F0721B
:100AC0002862012423463A4669463046FFF7F8FE7D
:100AD0004846FFF743FF824610B9641C642CF1D3EB
:100AE000642C08BF072000F0A280BAF1040F40F088
:100AF0009D809DF80B00F0722F629DF80B0080071F
:100B00000CD5002400E0641C37F814000028FAD14A
:100B100004F119000D21B0FBF1F600E001260021DF
:100B20004846FFF7FAFD010014D1002700F095F8C0
:100B300001000FD169690978E5291CBF0029002748
:100B400002D17F1CB74208D001214846FFF727FE9B
:100B50000100EBD0042808BF0720002882464FD1AF
:100B6000761E50D0E888811B4846FFF7D6FD002846
:100B7000824645D1A8690FF2BC04FFF7E1FE0746A3
:100B80004FF6FF7800F069F80028824638D10F232D
:100B900069692A6ACB72F0B200230B738B76CB762D
:100BA0004FF00D0C431E0CFB03FE4F73002301E0BE
:100BB000C44503D032F81EC00EF1010E14F803A094
:100BC00001F80AC0BCF1000F8A444FEA2C2B08BF81
:100BD000C4465B1C0D2B8AF801B0E9D3C4451ABF8B
:100BE00032F81E20002A40F0400000F030F80021CA
:100BF0004846FFF7D4FD824610B9761EC2D102E006
:100C0000BAF1000F12D100F028F8824670B900F056
:100C100019F8A96968690B22FFF79AFAA869696946
:100C2000C07A00F01800087300F012F85046BDE8D2
:100C3000FE8F000001030507090E10121416181C80
:100C40001E000000686920220021FFF78BBA08709F
:100C50000120296881F80402704729692868FFF794
:100C60006BBB2DE9F84F0D4680462C6800E0641CF4
:100C700020782F2818BF5C28F9D04FF40670404424
:100C80004FF0000A80680FF2BC190090002614E0B3
:100C9000BAF1FF0F2ED20121384600F02FFF0700D6
:100CA00028D0802F04DA39464846FFF762FA08BB9D
:100CB000009820F81A700AF1010AA75D761C202F0F
:100CC00003DB2F2F18BF5C2FE2D1A0192860202F43
:100CD000ACBF002504250AE0009800EB4A0030F87C
:100CE000027C202F18BF2E2F06D1AAF1010ABAF1DB
:100CF000000FF1D1062063E00099002021F81A00CE
:100D00000B22D8F818022021FFF72CFA002600E069
:100D1000761C009830F81600202818BF2E28F7D02F
:100D20000EB145F00305009800EB4A0030F8020CC4
:100D30002E2802D0BAF1010AF5D14FF0000BD946A6
:100D4000082400E00546009830F81670761C77B14C
:100D5000202F45F00300F5D02E2F01D15645F1D1BB
:100D6000A34501D256453AD10B2C2BD10546D8F8D4
:100D700018020278E52A04BF05220270082C08BF79
:100D80004FEA890909F00C000C2819BF09F003008B
:100D9000032845F00205EDB2A8070DD409F00300C1
:100DA000012804BF45F01005EDB209F00C0004283D
:100DB00004BF45F00805EDB2D8F81802C57200204E
:100DC000BDE8F28F564518BF0546B24521BF5646CD
:100DD0004FF0080B0B244FEA8909B4D2C7E7802FE4
:100DE0000EDB0021384600F089FE070004D00FF228
:100DF0006000C01910F8807C45F00205EDB22FB1FB
:100E000039460FF2CC00FFF7B4F920B145F00305E5
:100E10005F27EDB20DE0A7F141001A2838BF49F075
:100E2000020906D3A7F161001A283CBF49F0010965
:100E3000203FD8F8180200F80B700BF1010B82E785
:100E400000000000222A3A3C3E3F7C7F0000000068
:100E5000808182838485868788898A8B8C8D8E8F1A
:100E600090919293949596979899AD9B8C9DAE9FF7
:100E7000A021A2A3A4A5A6A7A8A9AAABACADAEAF7A
:100E8000B0B1B2B3B4B5B6B7B8B9BABBBCBDBEBFEA
:100E9000C0C1C2C3C4C5C6C7C8C9CACBCCCDCECFDA
:100EA000D0D1D2D3D4D5D6D7D8D9DADBDCDDDEDFCA
:100EB000C0C1C2C3C4C5C6C7C8C9CACBCCCDCECFBA
:100EC000D0D1D2D3D4D5D6F7D8D9DADBDCDDDE9FCA
:100ED0002B2C3B3D5B5D000032B5044608782F2883
:100EE00012BF5C28481C00904FF4007025180020A9
:100EF000A86000980078202808D200F022F800218D
:100F0000696132BD2868FFF7C2FCA86069462046C7
:100F1000FFF7A7FE010013D12046FFF71FFDA969C7
:100F2000C97A020001F0040104D0042808BF002996
:100F300006D104E021B96969C87AC006E2D4052067
:100F400032BD00212046FFF7E8BB10B502684FF024
:100F5000FF31BAB1134600E05B1C1C78202C01D392
:100F60003A2CF9D13A2C0CD112F8014B303C0A2C16
:100F700008D29A4208BF002C04D15A1C00210260FA
:100F800000E00021084610BD38B504464FF4FF705C
:100F900025180020A8714FF0FF30C4F8300200F08F
:100FA00026F808B1032032BD6878297800F087F967
:100FB00001D0022032BD04F13600DFF888154378F5
:100FC00082781B0243EA024203781A438A4208D01D
:100FD000437F827F007F1B0243EA02421043884224
:100FE00001D1002032BD012032BD00EB5721204647
:100FF000FFF7A2B92DE9F04F074685B00020386011
:1010000014460846FFF7A1FF0546002D48BF0B20F8
:1010100006D4DFF8349509EB850046680EB90C203C
:101020004AE13046FFF7AEF808B90F2044E13E60D0
:101030004FF4F2703718387F48B1787F00F024FD04
:10104000C10704D4002C01D040070DD433E10020A7
:1010500038777D77787F00F020FDC10748BF0320F7
:1010600003D41CB1400701D50A2025E100213046F8
:10107000FFF78AFF0446012C4FF000082BD1002017
:1010800006EB00114FF4DF7211440A7952B18B7AEA
:10109000CA7A1B0443EA02624B7A097A42EA0322C3
:1010A000114300E000214DF82010401C0428E7D334
:1010B000C2465DF82A80B8F1000F04D041463046A0
:1010C000FFF762FF00E00220040004D00AF1010AE9
:1010D000BAF1040FEDD3032C08BF0120C5D0002CBA
:1010E00001BF307BF17A41EA0020B0F5007F19D1D1
:1010F000F07DB17D51EA002206F1210109D14A7942
:101100008879120442EA00600A7940EA0220CA782B
:1011100002434FF404703518EA60307CF8770128F8
:1011200018BF022871D14243737BBB7718006CD083
:101130005C1E234269D1B07C747C06F2062A44EA24
:10114000002C0F241CEA040FAAF802C05DD1307DE8
:10115000F47C54EA00240AD14C788878240444EAC8
:1011600000600C7840EA042096F820400443F07BAD
:1011700096F80EE05EEA002047D002EB000E0EEB80
:101180001C1E744541D3A4EB0E04B4FBF3F3002BF7
:101190003BD0012440F6F67B5B4528BF02244FF686
:1011A000F67B5B4528BF03249B1CAB60C5F8108011
:1011B00040446861032C0EEB0800E8610FD1BCF1DC
:1011C000000F22D14A7B887B120442EA00600A7B2E
:1011D00040EA0220CA7A1043AA6892000EE0BCF1ED
:1011E000000F12D068691018AA68022C0FBF5200B5
:1011F00002EB420302F0010202EB5302A86102F289
:10120000FF12E868B0EB522F01D20D2054E04FF0EE
:10121000FF3068602860802086F80502032C01BF3B
:10122000087CC97B41EA0020012839D108F101017D
:101230003046FFF781F8002832D186F80502B97EE2
:10124000F87E00F03CF82BD1B178F07800F088F906
:10125000717840EA012031780843BC4988421FD1A7
:10126000B978F87800F07CF9797840EA012039788B
:101270000843B749884213D1B979F87900F070F979
:10128000797940EA0120397908436860B97AF87AB7
:1012900000F066F9797A40EA0120397A084328603B
:1012A0003C77B9F80000401CA9F80000AAF800003B
:1012B0003046FFF704F8002005B0BDE8F08F41EAA2
:1012C00000204AF655218842704710B500281FBFFC
:1012D0004FF400714418206800280BD008440178AE
:1012E00041B1C188A288914204D1407800F0CCFB82
:1012F000C00701D5092010BD2068FEF743FF08B9DB
:101300000F2010BD002010BDF3B581B01446009130
:101310006846FFF71AFE050001D50B20FEBD8A487E
:1013200000EB850677685FB13846FEF7C8FF4FF4DB
:1013300000700744F86800F094FB88B10020387012
:10134000019808B9706013E00199002081F800024B
:101350004FF4037101980144E8B200F073FB08B93F
:101360000220FEBD01987060019808B1012C01D0E7
:101370000020FEBD002202A901A8FFF73BFE0446A3
:1013800001982146FEF702FF2046FEBD2DE9F243FB
:10139000ADF5876D08B90920CFE04FF4007144180E
:1013A0000020206002F01F05FFA805F0FE0200F0FB
:1013B000EEFA5FEA00086ED1FFAF103703A8C7F856
:1013C00018D0386200F0C8F85FEA00087E690BD1D7
:1013D00016B94FF0060807E015F0FE0118BF01210D
:1013E00083A8FEF7E2FE80461C20054273D05FEA28
:1013F000080067D0B8F1040F0CD1564801680029E5
:101400001EBFC06800284FF0120803D183A8FFF761
:1014100043FB80467E695FEA080045F0080538D145
:1014200028073DD500F006FE07460004B773000EFE
:10143000F0733146380C3074380E70740020F0723E
:1014400030777077B077F077DDF80C04FFF71FFA8C
:10145000814600213046FFF72AFADDF80C140120FE
:10146000B9F1000F81F8040216D0DDF80C04D0F8B1
:1014700030724946FFF7ABF85FEA000809D1DDF8A2
:101480000C04A9F10101C0F810123946FEF754FF0F
:1014900080465FEA08004AD1280748BF45F020058A
:1014A000DDF80C04D0F83002E06115F0FE01266290
:1014B00018BF012183A8FEF7AAFEA062D8B94FF099
:1014C000020834E0F07A1121084211D16807A7D54B
:1014D0004FF008082BE05FEA0800DAD1F07AC10685
:1014E00048BF4FF0040822D4A907D5D5C007D3D5EB
:1014F0004FF007081BE0A5710020E0713146DDF8D0
:101500000C542846FFF7C3F92061B17FF07F00F04B
:1015100027F8717F40EA0120317F25600843E060B1
:101520000020A060A0616062B5F80602A08041467C
:10153000DDF80C04FEF72AFE40460DF5806D0FB075
:10154000BDE8F08346415400F4B900205252614195
:1015500072724161A0B9002083A8DDF83814BBE4A1
:10156000090441EA006070472DE9F84F81461E46A4
:1015700000203060924688464846FFF7A6FE00F0FD
:101580007CF903D000F008FA284693E0E1790800DE
:1015900004D02068FEF7FAFDE0798BE0A079C0075F
:1015A00005D420680721FEF7F1FD072082E0E068FE
:1015B000A168401A504517D8824615E0A76100F08F
:1015C00043F955468A4588BF0D4609EB00012A4676
:1015D0004046FEF7BDFDA0682818A060A84430680A
:1015E00028183060AAEB050ABAF1000F5DD0A16897
:1015F000C805E4D100F033F98DB909B9206908E0D4
:10160000626A1AB14846FFF771F802E06169FEF7B5
:101610000AFF022806D310F1010F42D0606100F0EA
:101620004BF818B900F032F9022043E02F185FEAB6
:101630005A2B21D0206800F201200BEB05024178E3
:101640000078914238BFA1EB050B5B463A46414614
:1016500000F032FA28BBA07940060AD5A069C01B69
:10166000584506D24FF40072494608EB4020FEF779
:101670006FFD4FEA4B25AEE7A269BA429ED0A07932
:10168000400605D5206800F01BF850B900F0E2F8DC
:101690000123206890F801023A4600F0F4F800288F
:1016A0008CD000F0E4F8012004E020680021FEF76F
:1016B0006DFD0020BDE8F28F61692068FEF7A3BED2
:1016C00090F801020123494600F0FCB92DE9F84FDA
:1016D00081469B460020CBF80000174688464846C6
:1016E000FFF7F3FD00F0C9F803D000F055F92846E4
:1016F00023E0E179080004D02068FEF747FDE07997
:101700001BE0A079800705D420680721FEF73EFD85
:10171000072012E0A068391881422BD2E068A16846
:10172000884238BF0846E0600021A07940F02000E0
:10173000A0712068FEF72AFD0020BDE8F28FC4F8F2
:1017400018A000F081F83D468F4288BF0D462A461A
:1017500041464844FEF7FCFCA07940F04000A071EF
:10176000A844A0682818A0607F1BDBF80000281898
:10177000CBF80000002FD1D0A168C805E1D100F05E
:101780006EF8C5B911B9216951B906E0626A1AB19A
:101790004846FEF7ABFF02E06169FEF74FFF0146E6
:1017A0000029BBD0012914D011F1010F48D061618B
:1017B000206900B92161A079400607D52068A26997
:1017C000FFF77EFF00283BD100F044F8FFF774FFDD
:1017D00018B900F05BF80220AFE77E0A05EB000ABB
:1017E0001ED0206800F201207219417800789142E1
:1017F00038BF4E1B33465246414600F063F9F8B9F4
:10180000A069A0EB0A00B04208D208EB40214FF4D7
:1018100000724846FEF79CFC00F01CF875029FE73A
:10182000A06950458BD0A068E168884287D22068C3
:1018300090F801020123524600F025F80028F1D06B
:1018400000F015F8012078E7A068C0F30800C0F5A3
:1018500000717047A07900F0BF00A0717047206848
:1018600090F802325B1E03EA5125EDB27047012069
:10187000E07101212068FEF789BC05004FF400707B
:1018800009EB00047047494600F016B90220E071E8
:1018900002212068FEF77ABC70B50546FFF715FDFA
:1018A00006004FF4007005EB000448D1A0798106D2
:1018B00045D540060FD52068A26990F801020123A2
:1018C00000F07CF828B120680121FEF75FFC0120C0
:1018D00070BDFFF7BFFFE1692068FEF72DFD060030
:1018E0002DD1256AE87A40F02000E872E068287778
:1018F000E0680004000E6877E068000CA877E068F4
:10190000000EE87728462169FEF7D1FF00F092FB30
:10191000A8750104090EE975010C000E6876297698
:101920000020A874E874A079216800F0DF00A0719D
:10193000012081F804022068FEF71AFD064620689F
:101940003146FEF723FC304670BD70B50446FFF704
:10195000A3FF050013D12046FFF7B7FC05000ED109
:101960004FF4007026580444A06AFEF78DFC050071
:1019700004BF0020206000213046FEF707FC284607
:1019800070BD4FF4007200212046FEF7EBBB0DF551
:1019900087611030FFF72EBB20682946FEF7F6BBA3
:1019A0007220307070704120B0706120F07070470C
:1019B0005520B0760123AA20F0767047294600F022
:1019C00081B88268521C8260426832B10268531C3E
:1019D000036011704168491E4160704762F30F2235
:1019E00062F31F42401810F0030308D0C91A1FD336
:1019F000DB0748BF00F8012D28BF20F8022D130097
:101A000030B414461546103928BF20E93C00FAD8F6
:101A1000490728BF20E90C0048BF40F8042D890081
:101A200028BF20F8022D48BF00F8012D30BC7047B8
:101A3000C91818BF00F8012DCB0728BF00F8012DE9
:101A40007047000010B50FF23C00006882B00C46F1
:101A500000900121684600F022FB206000B10120C7
:101A600016BD80B500F08CFB012002BD10B54FF40F
:101A70007A7100F027FB002400B90124204610BD34
:101A800000F054BB0000000001461B4A501802EB56
:101A900081014968007A49680847174A01460020D1
:101AA000535C43B901205054501802EB810149683E
:101AB000007A09680847704738B500F009F8A4684B
:101AC000A04732BD38B500F003F8E468A04732BD46
:101AD0000446094D281905EB84046468007A7047B0
:101AE00010B50346044CE01804EB83035B68007AEE
:101AF0001B69BDE810401847E0B90020802800DAD3
:101B0000704710B50FF2540349B1FF2801DD0020E2
:101B100010BD03EB4000A0F58070008810BD33F8C5
:101B20001140A04203D0491C89B28029F7DB01F1A2
:101B3000800000F0FF0010BD10B500210FF21C1254
:101B400000E0491C32F811301C0005D09842F8D151
:101B50000FF2E82030F8110010BD0000AC200000AA
:101B60001A2092011E20262020202120C60230208B
:101B700060013920520100007D01000000001820A2
:101B800019201C201D20222013201420DC022221D9
:101B900061013A20530100007E017801A000A100FC
:101BA000A200A300A400A500A600A700A800A90009
:101BB000AA00AB00AC00AD00AE00AF00B000B100B9
:101BC000B200B300B400B500B600B700B800B90069
:101BD000BA00BB00BC00BD00BE00BF00C000C10019
:101BE000C200C300C400C500C600C700C800C900C9
:101BF000CA00CB00CC00CD00CE00CF00D000D10079
:101C0000D200D300D400D500D600D700D800D90028
:101C1000DA00DB00DC00DD00DE00DF00E000E100D8
:101C2000E200E300E400E500E600E700E800E90088
:101C3000EA00EB00EC00ED00EE00EF00F000F10038
:101C4000F200F300F400F500F600F700F800F900E8
:101C5000FA00FB00FC00FD00FE00FF0061006200D6
:101C600063006400650066006700680069006A0040
:101C70006B006C006D006E006F00700071007200F0
:101C800073007400750076007700780079007A00A0
:101C9000A100A200A300A500AC00AF00E000E1009D
:101CA000E200E300E400E500E600E700E800E90008
:101CB000EA00EB00EC00ED00EE00EF00F000F100B8
:101CC000F200F300F400F500F600F800F900FA0065
:101CD000FB00FC00FD00FE00FF0001010301050107
:101CE000070109010B010D010F011101130115017C
:101CF000170119011B011D011F01210123012501EC
:101D0000270129012B012D012F013101330135015B
:101D100037013A013C013E014001420144014601C4
:101D200048014B014D014F0151015301550157012C
:101D300059015B015D015F0161016301650167019B
:101D400069016B016D016F0171017301750177010B
:101D50007A017C017E019201B103B203B303B403A3
:101D6000B503B603B703B803B903BA03BB03BC0397
:101D7000BD03BE03BF03C003C103C303C403C50344
:101D8000C603C703C803C903CA03300431043204BD
:101D900033043404350436043704380439043A046F
:101DA0003B043C043D043E043F044004410442041F
:101DB00043044404450446044704480449044A04CF
:101DC0004B044C044D044E044F045104520453047C
:101DD0005404550456045704580459045A045B0427
:101DE0005C045E045F0470217121722173217421EF
:101DF000752176217721782179217A217B217C2117
:101E00007D217E217F2141FF42FF43FF44FF45FFAB
:101E100046FF47FF48FF49FF4AFF4BFF4CFF4DFF7E
:101E20004EFF4FFF50FF51FF52FF53FF54FF55FF2E
:101E300056FF57FF58FF59FF5AFF0000410042006C
:101E400043004400450046004700480049004A005E
:101E50004B004C004D004E004F005000510052000E
:101E600053005400550056005700580059005A00BE
:101E70002100E0FFE1FFE5FFE2FFE3FFC000C1005A
:101E8000C200C300C400C500C600C700C800C90026
:101E9000CA00CB00CC00CD00CE00CF00D000D100D6
:101EA000D200D300D400D500D600D800D900DA0083
:101EB000DB00DC00DD00DE0078010001020104012E
:101EC000060108010A010C010E01100112011401A2
:101ED000160118011A011C011E0120012201240112
:101EE000260128012A012C012E0130013201340182
:101EF000360139013B013D013F01410143014501EB
:101F000047014A014C014E01500152015401560152
:101F100058015A015C015E016001620164016601C1
:101F200068016A016C016E01700172017401760131
:101F300079017B017D019101910392039303940345
:101F4000950396039703980399039A039B039C03B5
:101F50009D039E039F03A003A103A303A403A50362
:101F6000A603A703A803A903AA03100411041204DB
:101F700013041404150416041704180419041A048D
:101F80001B041C041D041E041F042004210422043D
:101F900023042404250426042704280429042A04ED
:101FA0002B042C042D042E042F040104020403042A
:101FB0000404050406040704080409040A040B04C5
:101FC0000C040E040F04602161216221632164214D
:101FD000652166216721682169216A216B216C21B5
:101FE0006D216E216F2121FF22FF23FF24FF25FF9A
:101FF00026FF27FF28FF29FF2AFF2BFF2CFF2DFF9D
:102000002EFF2FFF30FF31FF32FF33FF34FF35FF4C
:1020100036FF37FF38FF39FF3AFF000010B5034C99
:102020000348211D00F041F9207010BDECB90020DB
:10203000A8C90008002070470021842818BFC11CCF
:1020400008467047EFF3058000B10120C0B2704729
:1020500080B500F0DDF9002002BD30B5044685B042
:10206000B4F908000D46FFF7E7FF00210391029144
:10207000009004A901912B4622692168606892B200
:1020800000F018F9012814BF0020049805B030BDF5
:1020900080B500B9012000F098F9002002BD10B50C
:1020A00001290DD103220021012000F005FD0400CB
:1020B00004D000230022002100F024FD204610BDA2
:1020C000002010BD38B50446002000900CB98020D7
:1020D00032BD002511F1010F08BF4FF0FF3500F0B0
:1020E0001AF838B100F00CF8012807D100F017F801
:1020F000002032BD00F009F80128F9D0FF2032BDE0
:102100006A460021204600F08FBE00232A460021A7
:10211000204600F0FCBD01D001B10D4692E70098C9
:1021200018B114494FF080500860704738B500F07E
:1021300023F860B16946204600F0AAFD012801D0CD
:10214000FF2032BD009838B100F00EF804E000F036
:1021500005F8012818BFFF25284632BD00230022BC
:102160000021204600F0CEBC02494FF080500860AC
:102170007047000004ED00E000250446009561E78B
:1021800010B500F008F808B1822010BD204600F01C
:102190008DFE002010BD044654E74168006800220F
:1021A00000F08ABC32B582B004460020154600908B
:1021B00005B90125FFF746FF58B100236A4602A979
:1021C000204600F020FD01280BD1FFF7A8FF0020DA
:1021D0003EBD00232A4602A9204600F093FC0128B8
:1021E000F5D0FF203EBD7FB504460D460020029588
:1021F00001900DB9802026E0002612F1010F039016
:1022000008BF4FF0FF3600F023F870B103AA01A910
:10221000284600F009FE01280CBF10200020009085
:10222000039888B1FFF7A0FF0EE00023324601A912
:10223000284600F06CFD012808BF102003D0002EB6
:102240000CBF00204020009068460EC80EC47FBD21
:1022500001D002B11646F5E680B500F036FB012844
:1022600003D0BDE8014000F05FBF01BD00000000E9
:1022700030B50F4C657A03460120022D14DA657AD9
:1022800000206055607A04EB80004360607A20444F
:102290000272607A421C6272303008703A204870D4
:1022A0002F2088700020C87030BD0022E0E70000B9
:1022B000E0B900202DE9F0470646300082B089469B
:1022C00090461F4602D100F094FFFEE70A9C072CBF
:1022D00002D300F08EFFFEE70C99404600F0CCFAE6
:1022E00005006FD0286B0D9BCDF8008000EB8800B7
:1022F000001FC0084FEAC00A22464946284600F09F
:1023000078FA3A463146504600F094FE28600B9821
:1023100000B1056000F0E3FEDFF8E066DFF8E0867C
:10232000F06C401CF0644FF01409B06A28BBB56231
:10233000F06C012828D1002709FB07F0404400F089
:1023400083FF7F1C072FF7D306F1740000F07CFF9A
:1023500006F18807384600F077FF304600F074FF3A
:1023600006F1140000F070FF06F1380000F06CFF79
:1023700006F17400F062376306E0B06D20B9B06A10
:10238000C06A844228BFB562B06E401CB066686403
:102390000122E86A716D82401143716509FB00F00A
:1023A000291D404400F060FF00F0AEFEB06D012535
:1023B00028B1B06AC06AA04238BF00F087FE284644
:1023C000BDE8F6874FF0FF35F9E738B5050014D0C2
:1023D000DFF82846206F10B100F00BFFFEE700F099
:1023E00043F8206D2D1800F018FB00F00BFB284679
:1023F00000F029FA00F03EF800B905E031BD206F89
:1024000010B100F0F6FEFEE7BDE8314000F05EBE20
:1024100000B585B000200390029001900090002349
:1024200080220FF224610FF27130FFF743FF012881
:1024300008BF00F051FF012811D100F0DAFEDFF8EB
:1024400000064FF0FF31C166012181650021016561
:1024500005B05DF804EB00F007BE05B000BD002834
:10246000FBD100F0C6FEFEE7DFF8D405016F491C82
:102470000167704770B5DFF88455286F002410B9E4
:1024800000F0B7FEFEE700F02AFE286F401E286726
:10249000286F002837D1E86CF0B934E0E868C668E6
:1024A00006F1180000F005FF301D00F002FFF06A91
:1024B000696D01228240114369651423DFF8842588
:1024C0005843311D104400F0CFFEF06AA96AC96A72
:1024D000884224BF0120286628680028DED1E86DE4
:1024E00040B90AE000F014F808B101202866E86D50
:1024F000401EE865E86D0028F4D1286E012804BF6D
:10250000012400F0E3FD3EE1DFF83405006D704783
:102510002DE9F843DFF8E444206F002500284CD172
:10252000206D401C2065D4F85090B9F1000F0ED1F9
:10253000E06A006810B100F05CFEFEE7E06A216B23
:10254000E1622063606E401C606600F0B1F9E06EED
:10255000DFF8F0841427814524D316E0301D00F005
:10256000A8FEB06A18B106F1180000F0A2FEF06AE9
:1025700000F0D0F87843311D404400F075FEF06A59
:10258000A16AC96A884228BF0125E06A006810B9BB
:102590004FF0FF3005E0E06AC068C66870688145AA
:1025A000DCD2E066A06AC06A784358F800000228CE
:1025B000E06D28BF012528B902E0E06D401CE06510
:1025C00000F0FCFF206E00B1012535E280B5DFF898
:1025D0002C04016F11B10121016601BD01661422B5
:1025E000416DB1FA81F1C1F11F015143DFF854246B
:1025F000535813B900F0FDFDFEE7114401F1080343
:102600004A6852684A609A4204BF52684A60496800
:10261000C968816201BD38B50C4610B900F0E9FD0A
:10262000FEE7DFF81C54A96A183100F029FEA86AF9
:1026300000F0F4F900F003F800D10DE014E040B927
:10264000A86A696DC06A012202FA00F021EA00005E
:10265000686514F1010F7047A86A011D05F1380083
:10266000BDE8344000F000BE286D2018BDE83240BF
:10267000E9E070B50C46154610B900F0BAFDFEE76A
:10268000DFF8BC63B16A183100F0EEFDB06A00F00B
:10269000C5F900F0C6F9012D07D1B06A011D06F198
:1026A0003800BDE8704000F0DFBD306D2018BDE897
:1026B0007040C8E038B5C068C46814B900F099FD2E
:1026C000FEE704F1180000F0F4FDDFF87453286F02
:1026D00020B900F086F900F010F802E004F11801CA
:1026E000284600F0C1FDA86AE16AC06A884202D2A9
:1026F0000120286632BD002032BDE06A696D0122EA
:102700008240114369651423DFF838235843211DA3
:1027100010447047616D012282401143616570472A
:1027200080B510B900F065FDFEE7DFF814134A6EBE
:102730000260096D416001BD70B504000D4602D113
:1027400000F057FDFEE715B900F053FDFEE700F07D
:10275000C6FCDFF8A802016D2A6812F1010F0FD044
:102760006368406E2668B04201D099420AD2C81A06
:10277000904207D2501A181828602046FFF7D0FF61
:10278000002400E0012400F0BFFC204670BDDFF80B
:10279000B01201200866704770B5DFF86442DFF8B8
:1027A0005C521DE0FFF760FE6869461EB641FFF708
:1027B00061FEF60FA6B900F092FC286AC668301DCB
:1027C00000F077FDE86C401EE864686B401E6863AB
:1027D00000F09AFC306B00F0D5FF304600F0D2FFDD
:1027E000686B0028DED120680228F9D300F06EFC67
:1027F000F6E7F8B50446154600200A5C231883F86E
:1028000034200A5C12B1401C1028F6D30020072D9A
:1028100004F1100684F8430028BF062504F14C0794
:10282000F56178603D60201D00F01BFD04F118008B
:1028300000F017FDC5F10700B0603460746100203E
:10284000B8603873F1BD38B5DFF8F4510446A86AB2
:102850004460286D8442A86A05D2011D286BBDE83A
:10286000344000F00DBD011DE86A00F009FDE86E7E
:10287000844238BFEC6631BD70B50C4685001CB98A
:10288000284600F0FFFE04467CB15C2000F0FAFE12
:10289000060006D03463A5222946204600F0BAFF80
:1028A00004E0204600F06EFF00E00026304670BDD8
:1028B0005248C16A096811B94FF0FF3103E0C16A9B
:1028C000C968C9684968C1667047DFF87401816DDD
:1028D00009B901207047006F08B902207047002035
:1028E00070472DE9F041040039D0444DE06AA96AEF
:1028F000C96A884233D2A069002804D4A86AC06A91
:10290000C0F10700A0611427E16ADFF8386160694F
:102910007943314488421FD100F063F8002801BF99
:10292000E06A7843305800284FF0010805D1686DFF
:10293000E16A08FA01F188436865A86AC06AE06242
:1029400008FA00F2696D114369657843211D30442E
:10295000BDE8F04100F088BCA86AC06AE062BDE84A
:10296000F0812DE9F04104460020002C37D0234DA2
:10297000A96A8C4202D000F03CFCFEE7216D11B93F
:1029800000F037FCFEE7E26AE36C491E9A422165DB
:1029900025D021BB00F025F801261427DFF8A480FC
:1029A000002801BFE06A784358F80000002805D1EC
:1029B000686DE16A06FA01F188436865E06CE062DF
:1029C000C0F10700A061E06A696D06FA00F21143E8
:1029D00069657843211D404400F046FC0120BDE8B4
:1029E000F081201D00F065BC1548816A19B1816A2B
:1029F0000A6D521C0A65806A70470000BCB6002050
:102A000058B7002040B9A06A616DC06A012202FA7D
:102A100000F021EA000060657047A06A001D00F028
:102A200048BC40B9B06A716DC06A012202FA00F078
:102A300021EA0000706570472846BDE8F283000077
:102A4000BCB6002058B7002049444C4500000000A7
:102A500038B504000D4602D100F0CBFBFEE700F0D4
:102A60003EFBE16B226C206851430844606000200B
:102A7000A0632068E16B226CA060491E206851436E
:102A80000844E0604FF0FF306064A06445B92069FD
:102A900070B100F0FEF901280AD100F017FB07E041
:102AA00004F1100000F0D0FB04F1240000F0CCFB96
:102AB00000F02AFB012032BDF8B504000D46164691
:102AC00002D100F096FBFEE7002D0EBF542005FB5F
:102AD00004F0553000F0D6FD07000ED0002D0EBFDB
:102AE0003F6007F154003860FC633D6401213846C3
:102AF000FFF7AEFF87F8506017B900F07AFBFEE7EA
:102B00003846F2BD2DE9F44183B0044688461E469E
:102B1000002714B900F06DFBFEE7B8F1000F01D1FA
:102B2000206C60B9022E02D1E06B01280AD1FFF7B8
:102B3000CCFE70B9039860B100F05BFBFEE700F0DB
:102B400058FBFEE700F055FBFEE700F06BF9FFF7DE
:102B500091FC00F0C4FA00F097F801D3022E12D1D4
:102B600032464146204600F0AEF9616A21B100F0DC
:102B7000CAF8012803D100E008B100F0A7FA00F07C
:102B8000C3FA01203EE0039810B900F0BDFA38E026
:102B90001FB96846FFF7C4FD012700F0B5FAFFF73B
:102BA00063FC00F09CFA00F070F904BF0020606440
:102BB00000F0A5F804BF0020A06400F0A5FA03A966
:102BC0006846FFF7B9FDC0B900F089FA00F05CF87B
:102BD0000CBF0125002500F097FA002DB5D0039910
:102BE00004F11000FFF717FD00F01CF9FFF742FC9D
:102BF0000028AED100F06AFAABE700F013F9FFF756
:102C000039FC00200BE12DE9F04104000D46164689
:102C10001F4602D100F0EDFAFEE70DB9206C08BBAB
:102C2000022F02D1E06B01281FD100F08DFA00F0D5
:102C3000E0FA804600F028F801D3022F1DD13A4671
:102C40002946204600F03FF900F059F810D1606A9B
:102C500088B100F058F8002818BF002E0BD00120D2
:102C6000306008E000F0C5FAFEE700F0C2FAFEE7C7
:102C7000A06C401CA064012400E00024404600F049
:102C8000BFFA2046BDE8F081A06BE16B8842704737
:102C900070B504000D4602D100F0ABFAFEE7206CDF
:102CA00010B100F0A6FAFEE7206808B96068C0B964
:102CB00000F04AFA00F09DFA0646FFF7E5FF18D249
:102CC000A06B401CA06300F01AF80DD1606A70B1CF
:102CD00000F019F8002818BF002D08D00120286046
:102CE00005E000F086FAFEE7A06C401CA064012419
:102CF00000E00024304600F083FA204670BDA06C4E
:102D000010F1010F704704F12400FFF7D3BC2DE947
:102D1000F44183B004460D469846002714B900F0EC
:102D200068FAFEE70DB9206C38B9FFF7CEFD58B947
:102D3000039848B100F05DFAFEE700F05AFAFEE7AA
:102D400000F070F8FFF796FB00F0C9F9A06BF8B13E
:102D500000F0A8F8B8F1000F0ED1A06B401EA063E0
:102D6000206810B9FFF740FE6060206960B100F094
:102D700090F8012808D105E0606AE76020B1FFF70C
:102D8000C2FF08B100F0A2F900F0BEF9012046E050
:102D9000039810B900F0B8F940E01FB96846FFF792
:102DA000BFFC012700F0B0F9FFF75EFB00F097F9D8
:102DB00000F06BF804BF00206064FFF7A0FF04BFC1
:102DC0000020A06400F0A0F903A96846FFF7B4FC56
:102DD00000BB00F084F9A06B461EB64100F094F9E8
:102DE000F60F002EACD0206830B900F078F960689A
:102DF000FFF777FD00F088F9039904F12400FFF74D
:102E00000AFC00F00FF8FFF735FB00289CD100F01A
:102E10005DF999E700F006F8FFF72CFB002004B0FD
:102E2000BDE8F081204698E0F8B504000F4615464D
:102E300002D100F0DEF9FEE70FB9206C40B900F0D6
:102E400083F900F0D6F90646A06B20B9002424E0EF
:102E500000F0CFF9FEE73946204600F06BF8A06B92
:102E6000401EA06300F011F80AD1206958B100F0AB
:102E700010F8002818BF002D05D00120286002E0BE
:102E8000606C401C60640124E1E7606C10F1010F8C
:102E9000704704F11000FFF70DBC304600F0B0F9A8
:102EA0002046F2BDE7682946204643E010B50400FD
:102EB00002D100F09EF9FEE700F08DF82046BDE853
:102EC000104000F05FBC70B504461646226C002529
:102ED00042B9206848BB6068FFF743FD0546002003
:102EE000606022E066B9A06800F0B2FCA068216CC6
:102EF00008446168A060884217D32068A06014E08D
:102F0000E06800F0A5FC206CE16840420144E1600B
:102F10002268914202D261680844E060022E04D126
:102F2000A06B10B1A06B401EA063A06B401CA063FF
:102F3000284670BD10B5026C0B466AB1C168446882
:102F40001144C160A14224BF0168C160C168BDE8ED
:102F50001040184600F07CBC10BD38B5044600F0A7
:102F6000BEF807E0FFF7CFFE08B1FFF710FCA06C3A
:102F7000401EA064A06C012802DB606A0028F1D129
:102F80004FF0FF35A56400F0BFF800F0A8F807E0A7
:102F9000FFF77FFF08B1FFF7FAFB606C401E60642B
:102FA000606C012802DB20690028F1D16564BDE86E
:102FB000314000F0A9B810B500220E4B53F8324052
:102FC0002CB943F8321003EBC201486010BD521C0B
:102FD000082AF3D310BD0021064A02EBC1035B6847
:102FE000834203D1002042F831007047491C082970
:102FF000F3D370473CB8002070B504460D46164622
:1030000000F06DF8FFF741FF04BF00206064FFF798
:1030100076FE04BF0020A06400F076F8A06B28B90B
:103020003246294604F12400FFF723FB2046BDE881
:10303000704092E710B5A0F10C034FF08074596016
:103040009C600FF20D01196040F8202D203810BD52
:1030500080B54A48406810F1010F02D000F0C9F86D
:10306000FEE700F0C6F8FEE71CB54548434C017882
:103070000191FF21017001788DF800109DF800107A
:1030800001F050012170072105E09DF80020520059
:10309000491E8DF800209DF800201206F5D4090283
:1030A00001F4E061A160019901703648016841F4C2
:1030B00070010160016841F07041016000F06AF840
:1030C0000020606000F0AFF8002016BD2E494FF0E0
:1030D00080500860BFF34F8FBFF36F8F704780B58C
:1030E00000F087F825484168491C4160BFF34F8FC5
:1030F000BFF36F8F012906D123480068000602D074
:1031000000F077F8FEE701BD80B51C48416811B9B1
:1031100000F06FF8FEE7491E416004D1BDE80240AF
:10312000002000F06DB801BD80B500F062F8FFF737
:10313000EFF918B114494FF0805008600020BDE845
:10314000024000F05DB8000080B5EFF30580102864
:103150000A4907D30D4A105C0A78904202D200F067
:1031600048F8FEE788680A49096801F4E061884286
:1031700002D200F03EF8FEE701BD0000380000205A
:1031800000E400E020ED00E004ED00E0F0E300E00A
:103190000CED00E00549064809684FF47A72B1FB6E
:1031A000F2F1491E41600721016070474400002090
:1031B00010E000E0EFF30980BFF36F8F204B1A6837
:1031C00020E9F00F106008B54FF0500080F311882F
:1031D000FFF7FCF94FF0000080F31188BDE80840CC
:1031E00019680868B0E8F00F80F30988BFF36F8FA3
:1031F0007047EFF311804FF0500181F31188704751
:1032000080F3118870470E4B19680868B0E8F00F1A
:1032100080F30988BFF36F8F4FF0000080F31188AF
:103220004EF00D0E704707480068006880F308886C
:1032300062B661B6BFF34F8FBFF36F8F00DF000040
:10324000E4B6002008ED00E000F1080141604FF015
:10325000FF31816000F10801C1600161002101605E
:10326000704700210161704742684A6093688B6033
:1032700093685960916008610168491C016070475A
:1032800030B50A6812F1010F08BF036907D000F1D9
:10329000080300E023465C682568AA42FAD25A680F
:1032A0004A6091608B60596008610168491C016047
:1032B00030BD4368016982689A60836842685A60D9
:1032C0004A68824204BF82684A600022026108683C
:1032D000401E08607047000000B585B000F03EF960
:1032E000B148806878B100200390029001900023DB
:1032F000022000904FF480720FF2B0210FF26100B3
:10330000FEF7D8FF10B9FFF774FFFEE705B000BD68
:1033100070B51D4684B00446002314B9FFF769FF59
:10332000FEE7A14EB068C0B1062900910192029457
:103330000EDAFFF7CAFA022803D1089AB068002310
:1033400002E0B068002300226946FFF7DBFB03E0E0
:103350002A466946FFF757FC0346184604B070BD7D
:10336000F0B583B0904C03E0FFF784F800F0A2F8CA
:103370002068016811B90127002502E0C0680568CE
:103380000027FFF771F801A800F03CF80646019805
:103390000028E9D12FBBAE4228D3FFF76BF8206895
:1033A000C068C768381DFFF784FFF869012814D189
:1033B000B86941192B463246384600F060F80128BA
:1033C0000BD10020009000232A4600213846FFF749
:1033D0009FFF10B9FFF70DFFFEE7796A384688476F
:1033E000C4E760680068471EBF41FF0FA0683A4607
:1033F000A91BFFF701FEFFF73DF80028B6D1FFF744
:1034000065FEB3E72DE9F04182B00446FFF77CF892
:10341000654E0546F06885420BD300202060F560BC
:103420002846BDE8F68178603F61391D3068FFF7B6
:1034300027FF30680168E9B1C068D0F80080C7682C
:10344000381DFFF736FF796A38468847F869012842
:10345000EFD1B86940448045E5D3002000900023B7
:10346000424600213846FFF753FF0028E1D1FFF71D
:10347000C0FEFEE77168706031600120CEE738B5AC
:1034800000248A4241600061474D06D3D11A826907
:10349000914206D2011D686807E09A4203D2994220
:1034A00001D3012403E0011D2868FFF7E9FE20464F
:1034B00032BD000010B586B004E0811813462046E6
:1034C000FFF7DDFF384880680023002201A9FFF7DD
:1034D0001EFC002840D001980028F3D4039C6069AA
:1034E00010B1201DFFF7E5FE04A8FFF78BFF024691
:1034F00001980928E6D8DFE800F006060605242B27
:1035000006060524DEE70298A1690346091820464D
:10351000FFF7B5FF0128D5D1616A20468847E069E9
:103520000128CFD10020009000230298A1690A1839
:1035300000212046FFF7ECFE0028C3D1FFF759FE1B
:10354000FEE70298A0610028B7D1FFF752FEFEE720
:10355000204600F017F9B5E706B010BD10B5FFF72B
:10356000BEFD114CA068D8B904F11000FFF76CFE45
:1035700004F12400FFF768FE04F11000206000222F
:1035800004F1240060600C210A20FFF795FAA06086
:1035900010B9FFF72EFEFEE70FF21801FFF70BFD43
:1035A000BDE81040FFF7B0BD34B90020546D722063
:1035B00053766300546D72510000000022480021D0
:1035C000816000F108014068FFF762BB10B58AB066
:1035D000032200210120FFF76FFA1B4C606020B12D
:1035E000002300220021FFF78DFA04A80FF28001CA
:1035F000142200F03DF9002104A8FEF72EFD206002
:1036000000230020039002904FF4007204F10C009C
:1036100001900CA1062000900C48FEF74BFE002004
:1036200003900290002304F1100001904FF4807287
:10363000012000900FF230010548FEF73BFE0AB072
:1036400010BD0000316D73006CB9002031C8000856
:10365000D9C9000880B500F037F9FEF7DFFC01207A
:10366000FEF716FDFBE70000537461727400000062
:10367000F0C9000855360008FDFF000000000000FA
:10368000800000002DE9F0410446FEF7EDFE604F9A
:10369000B8680025A84608BB07F1180307F118020F
:1036A00013F007034FF48041104605D0D01DC00829
:1036B000C000C0F58041511809180839C908C9006F
:1036C00038607D60B9604D600D600A1A426001602B
:1036D00040683861F8604FF00040786178690442D2
:1036E00045D1002C43D0083414F0070F1FBF04F15C
:1036F000080004F00701441A14F0070F02D0FFF786
:1037000078FDFEE79CB3F868A04230D33E683846A7
:1037100001E030460E467168A14202D231680029AC
:10372000F7D1B9688E4222D0016801F108053168ED
:1037300001607068011B11290AD3301910F00702CB
:1037400002D0FFF756FDFEE74160746000F03BF8E1
:103750007068F9683A69091AF960914238BF3961AD
:10376000796908437060C6F8008005F00708FEF725
:1037700081FEB8F1000F02D0FFF73BFDFEE72846BF
:10378000BDE8F08138B5E8B1A0F10804204D6068CB
:103790006969084202D1FFF72CFDFEE7226812B1E9
:1037A000FFF727FDFEE788436060FEF75DFEE868EF
:1037B00061680818E860204600F005F8BDE831406F
:1037C000FEF758BE31BD30B511490A4600E01A4631
:1037D00013688342FBD35368D418844203D14068F2
:1037E000C0185060104643681468C518A54208D137
:1037F00089688C4204D06168C9184160246800E07F
:103800000C460460824218BF106030BD000000000A
:103810006865002062F30F2262F31F4200B500BF0B
:10382000130096469446103928BFA0E80C50FAD8E9
:103830005FEA417C28BF0CC048BF40F8042BC90791
:1038400028BF20F8022B48BF00F8012B00BD000064
:1038500062B38B0708D0521E11F8013B00F8013B00
:1038600000F024808B07F6D1830740F0208000BF52
:10387000103A07D330B4B1E83810103AA0E8381045
:10388000F9D230BC530724BFB1E80810A0E80810F3
:1038900044BF51F8043B40F8043BD20724BF31F841
:1038A000022B20F8022B44BF0B7803707047083AB4
:1038B00007D3B1E80810083A40F8043B40F804CBBD
:1038C000F7D25307E4E7000010B5164C0FF21D01C4
:1038D0000122204600F05AF81349204600F0AFF8C4
:1038E0002046BDE8104000F0E3B8000001290F4871
:1038F00006D002290CD004290ED0052903D0704728
:103900000FF22C000CE0032101700FF23C0007E0E5
:1039100001700FF24C0003E0012101700FF254001E
:1039200000F0B2BA64AC00204800002012BA0020B7
:103930005553422044657669636520436F6E66691E
:1039400067757265640000005553422044657669CE
:10395000636520446973636F6E6E656374656400AC
:1039600055534220446576696365204163746976E6
:103970006500000055534220446576696365204325
:103980006F6E6E65637465640000000070B50400BE
:1039900088B00E4608BF022029D04FF46F7025185A
:1039A0004FF45D7020442A70002101604160204680
:1039B00000F01FF830000FF2504018BFAE60D0E9A1
:1039C0000023CDE9002300216846FEF7E6FBE8600E
:1039D000142202A80FF23841FFF74AFF214602A83D
:1039E000FEF73BFB2861204600F09BFA002008B060
:1039F00070BD10B504464FF45F703C21204400F0C8
:103A000029FB4FF48E704FF40071204400F022FB2C
:103A100000202070607000210120A0700020C4F8F8
:103A2000B803012020764020A071002060764FF47A
:103A300047702044017001214170002010BD10B575
:103A4000002241B1D0F878332BB90124C0F8784373
:103A5000C0F8701300E00222104610BD10B500F24D
:103A60001F300022C47DA14234BF017002221046E3
:103A700010BD70B500241A25654305444FF44F76F8
:103A800035446E798E4218BFFF290BD1AE7996422C
:103A900018BFFF2A06D1ED799D4218BFFF2B01D137
:103AA000E0B270BD641C64B2022CE4DBFF2070BD88
:103AB00010B5044600F060FA0121204600F0A8FA93
:103AC000002010BD70B584B0044602208DF80000BF
:103AD0004FF4477026184FF45C70251820780A2898
:103AE00043D8DFE800F00698128E983E734A525A87
:103AF0008800B078002842D001202070C82000F053
:103B0000A6FA204600F054FA28E0642000F09FFA5C
:103B1000204600F03FFA70700021052020702046FA
:103B200000F0ADFA60718021204600F0A8FAA1797A
:103B3000207102918022002101917178009101464B
:103B4000337800F0F2F8A079029000220020019072
:103B5000707800903378617900F0E7F80022012155
:103B600045E0204600F05AF8002854D1F070707DEE
:103B7000012814BF0720082033E06A6D10004AD0E6
:103B800001212046904708202EE0F17E204600F0DB
:103B90001BFB00283FD1092023E0A86828B30020A0
:103BA0002968686094F84123087990420CD16960D3
:103BB00051B189682046884730B90620207003211A
:103BC0006A6D2046904710E00C200DE0696851B105
:103BD0000969204688478DF800009DF80000D0B99B
:103BE0000A20207017E00C20207000220521A86D0B
:103BF000FEF7D8FA0FE0696869B14969204688473D
:103C000009E02046FFF7F5FE696821B1C968204642
:103C1000884700206860002004B070BDFEB50446EF
:103C20004FF4477027184FF48E70661C22183078B6
:103C3000012507286DD8DFE800F004111939414843
:103C4000515D0821204600F041FA002861D1F87A40
:103C500070713570029000F062F81AE0122120466F
:103C600000F034FA002854D102203EE00121204621
:103C700000F09EFA00284CD1022000F0E8F93D70D7
:103C80000320307001237079029000200190787831
:103C900000908022F17800F048F8707902900022BC
:103CA00000F03DF8317900F040F832E0092120467B
:103CB00000F025FA00282CD1042016E0398B20468C
:103CC00000F01DFA28BB05200FE0B97C080002D0E7
:103CD00000F021F8E8B90620307014E0F97C080003
:103CE00005D000F018F8A0B90720307011E00720C7
:103CF000307008E0397D080004D000F00CF840B9BD
:103D0000002506E000250022D4F8C8030521FEF7AF
:103D100049FA2846FEBDFF23204600F007BA0020DE
:103D20000190787800903B787047204600F095B974
:103D3000C0F8B81370474FF45D7101444A6C521CCF
:103D40004A6402780A2A04D1096800291CBF8969DB
:103D50000847704710B54FF471714418017841B9A4
:103D6000012180F81E132268110007D0042190471A
:103D700004E00178012904BF02210170606800227B
:103D80000121FEF70FFA002010BD38B5044600F0FF
:103D9000FAF800F01BF8617900F019F8002084F8B7
:103DA0001E034FF4717025182A68100002D00521F7
:103DB00020469047204600F0DFF8032020700022C4
:103DC00068680121FEF7EEF9002032BD2179204616
:103DD00000F06FB910B584B00446D4F8C8134FF0A2
:103DE000FF326846FEF7FFF900981028F5D120460B
:103DF000FFF768FEF1E780B5D0F8C8030022022182
:103E0000FEF7D0F9002002BD0A0000000200000009
:103E1000CCC90008D53D00080000000000000000EB
:103E2000800000000122824012F0070200D170479A
:103E300000B59BB00FF260020091114951F820309B
:103E4000642101A800F05AFB01A800F002F81BB0A1
:103E500000BD00B599B00146684600F071FB07A1AE
:103E600000F090FB684600F09BFB82B24FF6FF73B8
:103E70006946044800F02AFC19B000BD0A000000A1
:103E80002C0000207CB8002001460020CAE7014633
:103E90000220C7E7000000002573203A20257300A8
:103EA0000068B0F1A04F00D0704710B586B04FF455
:103EB00080700190022002900320049001A92B4CF5
:103EC000204600F069FE4FF40070019001A9002027
:103ED00002900390204600F05FFE2548016841F4FF
:103EE000805101600022006800F48050009005219C
:103EF0000098432001F03CF8432001F068F806B038
:103F000010BDD0F88002FFF716BFD0F88002FFF78F
:103F100021BFD0F88002FFF738BFD0F88002FFF74A
:103F20006ABF38B504464FF46F7020440178012908
:103F300019D1104DC5F8804245604FF0A04028606F
:103F40000820A8600320E86001206861284601F08D
:103F5000C3F808B101F04CFD284601F035FA0146DE
:103F60002046FFF7E5FE002032BD000000080140BA
:103F70001410024034B0002080B5D0F8C00301F026
:103F8000EFF9002002BD80B5D0F8C00301F001FABE
:103F9000002002BD10B5D0F8C00301F018FA0124CA
:103FA00018B1022808BF022400E00024204610BDFA
:103FB00080B5D0F8C00301F0F9F9002002BDD0F8B7
:103FC000C00301F0FCB910B584B000F014F801F0A2
:103FD000BCF80DE080B5D0F8C00301F0DDF800209A
:103FE00002BD1FB5099C039400F005F801F0E0F84C
:103FF000002004B010BD089C0294079C0194069C0C
:104000000094D0F8C0037047D0F8C00301F0D1B9D4
:1040100080B5C82001F08CFD002002BDD0F8C0039F
:1040200028235943084410F8271F002914BF42755C
:10403000827500207047D0F8C003282251430844FD
:1040400010F8271F09B1407D7047807D704701F04F
:104050006FBD00000022FFF7E1BB10B584B0089CE3
:104060000294079C0194069C0094FFF7ACFF00208B
:1040700004B010BD80B5FFF7ADFF002002BD0022E7
:1040800000EB8203D3F87C331B0406D5521CD2B25A
:104090000B2AF5DB4FF6FF7209E04FF6FF739A42E9
:1040A00005D000EB820041F40041C0F87C13D0B28F
:1040B00070470B2907DA00EB8100D0F87C13C1F3BD
:1040C0000E01C0F87C13002070470000F8B50446CC
:1040D0004FF48E700D462618009533464FF48072CB
:1040E0000021204600F04AF8070006D14FF448703E
:1040F0002A463146204400F081F83846F2BD70B5BA
:1041000082B004460D46009504F11C034FF4007282
:10411000002100F033F8060006D12A4604F11C0104
:1041200004F2323000F096F8304676BDF8B5044619
:1041300015464FF48E701E46271841F440720096C3
:104140003B460021204600F019F8010004BF7978B1
:10415000032912D139788A1E9642A4BF8E1EB6B2A8
:10416000002106E06218891C92F81E2105F8012B37
:1041700089B2B142F6DB00212970F2BD38B58578ED
:10418000049C012D0FD141F080010174428206216F
:104190004174C48202F47F41B1F5407F0CBF40F20C
:1041A00009410021818222461946BDE83840C4E019
:1041B0008278012A07D1002202744182052200215F
:1041C00042748182C1820AE08278012A07D10022EA
:1041D000027441820922002142748182C18200223C
:1041E0000021AAE08278012A07D10222027481828A
:1041F0000122427400224282C282F0E710B50B789D
:104200000370092A4B784370CC788B7803EB042336
:1042100043800B7903714B7943718B798371CB792F
:10422000C37116DB0A7A4B7A02EB03220281CB7A46
:104230008A7A02EB032242814B7B0A7B02EB032248
:1042400082818A7B8273CA7BC2730A7C0274497C36
:10425000417410BD2DE9F0410446084682B0017852
:1042600021700025417861700A2A8178C37801EBBA
:104270000321618001792171417961718179A17195
:10428000C179E171017A21724EDB0921ADF800108C
:10429000BDF800106288914246D2694600F046F8A7
:1042A00041780429F4D11A21694304EB010808F18B
:1042B0000A07017839700026417879708178B970E1
:1042C000C178F97001793971417979718179B97160
:1042D000C179F971017A397219E0694600F026F85E
:1042E0004178052913D176B208EBC601027801F8AE
:1042F000142F761C42784A7082788A70C278CA700D
:104300004379027902EB03228A8082798A7171B241
:104310003A79914204DABDF8001062889142DCD308
:104320006D1C6DB2022DB3DBBDE8F3810A88037802
:104330009A180A8001780844704770B50124054630
:1043400005F10806A878012802D002280CD019E04F
:1043500030743160B2800220A8700022D5F8C80302
:104360000321FDF71FFF0DE0284600F00FF80400C1
:1043700004D10120A8700020307403E0022C04BF97
:104380000120A870204670BD00000000F8B500F1C3
:1043900008054FF46E714618297C0124871C491EBC
:1043A0000A293AD8DFE801F0060D222B3F495F6861
:1043B00078839700FA7800F1100101F0C5FB022024
:1043C00073E0F978FFF720FE0746012F24D1287A01
:1043D000E98900F0800021B1802814BF0520032066
:1043E00072E080280CBF092007206DE03168AA88A0
:1043F000E980BB78296801F0B8FB042055E0B97862
:10440000FFF702FE0746012F0AD109202874002277
:1044100030690321FDF7C6FE042F6DD10B2053E058
:10442000052FF9D135E00094FB78AA88296801F0BE
:1044300096FB3068E880062037E0F978FFF7E4FD66
:10444000012808BF07203FD0052802D10C2028747E
:104450001FE0022808BF052036D004284CD10B20CD
:104460002874022431E0BB780022002101F07DFB9A
:104470003068E880082018E0B978FFF7C5FD01280A
:1044800003D10D20287400241FE00428C6D005287D
:1044900032D10324002219E000940022FB7800218D
:1044A00001F05DFB3068E8800A20287424E0F97888
:1044B000FFF7AAFD0746012F03D10D200024287421
:1044C00003E0022FA8D109202874002203213069BB
:1044D000FDF768FE10E0697C491C6974C9B20329C4
:1044E00004DAFFF750FD2C743C7005E0F2680621F9
:1044F00090470020687402242046F2BD08B400B53D
:1045000084B005AB03930023029311B90093019388
:1045100002E00090481E019003AB694607487844CA
:104520001A3001F057FB009911B1009A0021117067
:10453000002858BF029804B05DF808FB87D4FFFF3D
:104540005FEA000C830706D011F8013B00F8013B3D
:10455000B3B18307F8D10A68B2F1013323EA020349
:1045600013F0803F02BF40F8042B51F8042FF3E70B
:1045700011F8013B00F8013B13B111F8013BF9E7D9
:1045800060467047024600E0521C1378002BFBD1B6
:1045900011F8013B137012F8013B002BF8D1704762
:1045A00000F10103810704D010F8011B89B18107D4
:1045B000FAD10268B2F10131914311F0803F04BF9A
:1045C00050F8042FF6E710F8011B11B110F8011B89
:1045D000FBE7C01A7047000070B5040001D101204C
:1045E00070BD2068A6690FF23455DFF81415DFF8A6
:1045F0001425DFF81435BEB198421CBF90428842A2
:1046000003D040F2071100F052F8A069002818BF4B
:10461000B0F5807F19D0B0F5007F18BFB0F5407FAE
:1046200013D04FF484710EE0984218BF90420CD022
:1046300088421FBFDFF8D4148842DFF8D4148842C0
:1046400003D04FF4867100F032F8A068002818BF3C
:10465000B0F5805F03D04FF4877100F028F8E0696F
:1046600018B140F20F1100F022F804F13805687813
:1046700008B900F00EF800F010F800F01BF8C1685F
:1046800041F40051C1600020686001206870002082
:1046900070BD2870204602F083BB0220687020683D
:1046A000C16821F40051C160204600F090B928464D
:1046B00001F09FB92068016921F4904101612068EF
:1046C000416921F02A01416120687047F8B500F086
:1046D00045F818BF22281E463ED10DB1100001D169
:1046E0000120F2BD3878012836D000F042F82228A7
:1046F0000CBF322012207870A284E28406E000F021
:1047000034F808BB216815F8010B4860E08C010003
:1047100014D0401EE0843346A068B0F5805FEED12F
:1047200000F023F880B928882168C0F308004860A9
:104730002069002814BF6D1CAD1CE7E7334600223A
:10474000402100F014F808B10320F2BD7878322837
:104750000CBF2220012012E00220F2BD044604F129
:1047600038070D46787801287047002280212046BE
:104770008FE001203870002078607878704778707A
:1047800000203870F2BD10B5044682B02068016880
:10479000C268C90705D5D10503D5E16B41F0010118
:1047A000E16302684169920705D5CA0703D5E26B48
:1047B00042F00402E2630268520705D5CA0703D536
:1047C000E26B42F00202E2630268120705D5C907F4
:1047D00003D5E16B41F00801E1630168C068890617
:1047E00004D5800644BF204600F0A0F82068016888
:1047F000C268090626D5110624D594F83910122965
:1048000018BF32291ED1A168B1F5805F216A0BD192
:104810000988C1F30801416020690028206A0CBFA3
:10482000801C401C206203E04A1C2262097841601F
:10483000E08C401EE08480B220B900F06FF841F0B7
:104840004001C16020680168C268490610D5510660
:104850000ED5C16821F04001C16094F839003228BA
:104860000CBF2220012084F83900204602F0CCFA47
:10487000E06B68B120680168009140680090009882
:10488000012084F839002046BDE8164002F0C2BA83
:1048900013BD2DE9F84304460E4691461F4602F02B
:1048A000C7FAB9F1000F804604F138050FD120682E
:1048B00000683040B0422ED017F1010FF7D0AFB1F1
:1048C00002F0B6FAA0EB08008742F0D20EE02068B2
:1048D00000683040B0421ED117F1010FF7D02FB160
:1048E00002F0A6FAA0EB08008742F0D200F016F81A
:1048F00021F02001C1602068C16821F48071C1608D
:104900002068416949084900416101206870002020
:104910002870032000E00020BDE8F2832068C16811
:1049200021F08001C1602068C168704780B590F8AF
:104930003910222918BF322947D18168B1F5805F2B
:1049400012D10269816A002A0268526805D1C2F355
:1049500008020A80816A891C04E002F0FF020A80D2
:10496000816A491C81620FE001690029816A04D1D2
:104970004A1C82620268526805E04A1C8262026830
:10498000526802F07F020A70C18D491EC18589B24A
:10499000C9B90168CA6822F02002CA6090F83910CB
:1049A000322908BF12210AD00168CA6822F4807235
:1049B000CA6001684A69520852004A61012180F8C0
:1049C000391002F022FA002002BD022002BD2DE9BA
:1049D000F04704464F4960680FF24015884203D300
:1049E00040F25271FFF763FEE068002818BFB0F58F
:1049F000005F03D040F25371FFF759FE2069002891
:104A00001CBFB0F5806FB0F5C06F03D040F2547199
:104A1000FFF74DFE606930F00C0100D118B940F28B
:104A20005571FFF744FE20680169E26821F44051A6
:104A3000114301616425C168374A1140A2681143DE
:104A40002269114362691143C16019264169A26953
:104A500021F44071114341612B4988420ED102F08B
:104A6000D2FD074602F0CFFD804602F0CCFD814624
:104A700002F0C9FD824602F0C6FD0DE002F0BBFD6A
:104A8000074602F0B8FD804602F0B5FD814602F00F
:104A9000B2FD824602F0AFFD06FB08F361688900B3
:104AA000B3FBF1F306FB07F206FB09F7B7FBF1F7DF
:104AB000B7FBF5F705FB17331B013233B2FBF1F2FD
:104AC000B3FBF5F3B2FBF5F203F0F00303EB0212D4
:104AD000704306FB0AF3B0FBF1F0B3FBF1F3B0FB5C
:104AE000F5F005FB103000013230B0FBF5F0216825
:104AF00000F00F0080188860BDE8F087000000001B
:104B0000004800400044004000380140004C004094
:104B10000050004021AA4400F3E9FFFF583A5C5FCF
:104B20005F4A617A5C50726F6A656374735C466554
:104B300074636F5C43425331317878202820457884
:104B400074726163746F7220562B20295C436F640A
:104B5000655C426F6F744C6F616465725C57535C47
:104B6000447269766572735C53544D3332463178C2
:104B7000785F48414C5F4472697665725C5372633A
:104B80005C73746D3332663178785F68616C5F7521
:104B90006172742E630000002DE9F84F81460026F3
:104BA000DFF8C8020FF2FC2A81451CBFDFF8C00203
:104BB00081450D460DD0DFF8BC0281451FBFDFF8EF
:104BC000B8028145DFF8B402814502D0CF2100F060
:104BD0002DF92868000402D1D02100F027F9686877
:104BE000002818BF012822D0112818BF02281ED083
:104BF00012281CBFDFF88812884218D0DFF8841210
:104C000088421CBFDFF88012884210D0DFF87C1287
:104C100088421CBFDFF87812884208D0DFF874128F
:104C2000884218BF032802D0D12100F0FFF8B04617
:104C3000DFF86442012000FA08FB28680BEA00074D
:104C40005F4540F0EB80DFF8240281451CBFDFF8B0
:104C5000200281450DD0DFF81C0281451FBFDFF81F
:104C600018028145DFF81402814502D0DF2100F0EF
:104C7000DDF86868002853D0012820D0022835D0FC
:104C8000032865D0112825D012283CD0DFF8F01178
:104C900088421CBFDFF8F411884241D0DFF8E411EC
:104CA00088421CBFDFF8E811884239D0DFF8D811FC
:104CB00088421CBFDFF8DC11884231D049E0E86847
:104CC00002281CBF0128032802D0E72100F0AEF81B
:104CD000EE683EE0E86802281CBF0128032802D0E5
:104CE000EE2100F0A3F8E868061D32E0E86802282B
:104CF0001CBF0128032802D0F52100F097F8E868CE
:104D000000F1080625E0E86802281CBF01280328F6
:104D100002D0FC2100F08AF8E86800F10C0618E0E7
:104D2000A86848B101280BD002280DD040F2091123
:104D300000F07CF8A86808B904260AE0012803D12D
:104D40000826C9F810B004E00826C9F814B000E03D
:104D50000026FF2F03D848464FEA880104E0A8F157
:104D6000080109F10400890002680F238B409A436F
:104D700006FA01F1114301606868C0004ED547484A
:104D80004649006840F0010008600F230868444964
:104D900000F00100009000984FEA980051F82020A0
:104DA0004FEA880101F00C018B409A432F4B994543
:104DB00008BF00230ED02E4B994508BF012309D010
:104DC0002C4B994508BF022304D02B4B99450CBFAF
:104DD0000323042303FA01F11143314A42F820105E
:104DE000F8436968C90321684CBF39430140216019
:104DF0006968890361684CBF394301406160696833
:104E0000C902A1684CBF39430140A16069688902A9
:104E100047BFE0683843E1680840E06008F10108F6
:104E2000B8F1100FFFF406AFBDE8F18F504600F067
:104E3000E0BDF8B504460D46280016460FF264079B
:104E400003D14FF4F27100F00DF8300007D0012EBD
:104E500003D040F2E51100F005F82561F1BD28040A
:104E60002061F1BD384600F0C4BD000000080140DB
:104E7000000C0140001001400014014000180140E6
:104E8000000011100000211000003110000012106D
:104E900000002210000032100004014018100240EF
:104EA00008000140583A5C5F5F4A617A5C50726F5B
:104EB0006A656374735C466574636F5C4342533127
:104EC000317878202820457874726163746F72207D
:104ED000562B20295C436F64655C426F6F744C6F86
:104EE000616465725C57535C447269766572735C89
:104EF00053544D3332463178785F48414C5F4472A9
:104F0000697665725C5372635C73746D33326631BB
:104F100078785F68616C5F6770696F2E630000006E
:104F20000901002806D5474A00F00F00104400F898
:104F3000041C7047444A1154704710B50446072CAE
:104F400018BF062C07D0052C1CBF042C032C02D044
:104F5000BA2100F04CF83D4801684FF6FF021140BD
:104F6000220202F4E0621143394A1143016010BD8C
:104F7000F8B51646102E04460D460FF2E00703D38F
:104F8000D221384600F035FD102D03D3D321384609
:104F900000F02FFD2D480068C0F30220C0F107018A
:104FA000052928BF0421021D072A34BF0020C01E86
:104FB000012202FA01F1491E2940814002FA00F063
:104FC000401E304001432046BDE8F440A8E710B53C
:104FD000040002D5E62100F00AF8012004F01F01C8
:104FE00088401C49FFE7620941F8220010BD0FF21A
:104FF0006C0000F0FEBC10B5401EB0F1807F01D304
:10500000012010BD144C60600F214FF0FF30FFF7FE
:1050100087FF0020A06007202060002010BD10B591
:1050200004280D4C09D018B14FF4DF71FFF7DFFFF2
:10503000206820F00400206010BD206840F00400CB
:10504000F9E7000018ED00E000E400E00CED00E0FE
:105050000000FA0500E100E010E000E0583A5C5F73
:105060005F4A617A5C50726F6A656374735C46650F
:1050700074636F5C4342533131787820282045783F
:1050800074726163746F7220562B20295C436F64C5
:10509000655C426F6F744C6F616465725C57535C02
:1050A000447269766572735C53544D33324631787D
:1050B000785F48414C5F4472697665725C537263F5
:1050C0005C73746D3332663178785F68616C5F63EE
:1050D0006F727465782E630030B5040085B008BF28
:1050E00001202BD02068B0F1A04F04D088210FF20E
:1050F000D06000F07EFC4FF41F702518687818B956
:1051000028702046FEF7CCFE03206870206802F06D
:1051100031FB83B000F014F80EBC206802F00AFBEB
:105120002068012102F02CFB83B000F009F80EBCCE
:10513000206802F087FB01206870002005B030BDB8
:10514000211D68462022FEF793BBFEB5064696F861
:105150007C02012801D10220FEBD012086F87C02DC
:1051600028204843304400F1240702F07F003B70C0
:105170000A9C3C817970099DB870FD71D009F87066
:1051800008983871009002940195306802F014FC80
:10519000002186F87C12FEBD10B500F0F5F801D1B3
:1051A000022010BD012084F87C0200F0D4F9E7E071
:1051B000F8B528244C43061906F12507BA70BB71CF
:1051C00006F1300E069D2C000CBF032402247C72D5
:1051D000032B089C20D8DFE803F0021D0C19012DD9
:1051E00008BF002A18D1220004D101228EF80D2018
:1051F00000E02ABB9EF80D2002B102227A729EF8CE
:105200001820022A08D0099A3A7105E0C2B99EF81E
:105210000D20CAB900227A72079ACEF80020CEF883
:10522000044000228EF81820CEF8082039708EF83D
:10523000192006F124010068BDE8F44002F010BC1A
:105240009EF80C20002AE5D00222E4E7F8B50446D7
:1052500000252668304602F0F1FA01287CD100F0E2
:105260007CF8002878D000F078F8800203D5216817
:105270004FF40010486100F070F8C00203D52168B7
:105280004FF48010486100F068F8400103D52168B0
:105290004FF08060486100F060F8800702D5216817
:1052A0000220486100F059F8800010D506F58860AA
:1052B000016821F02E0101602046FEF72AFE2068D9
:1052C000012102F017FB21684FF00050486100F007
:1052D00044F8C00144BF204600F024FA00F03DF835
:1052E000000705D52046FEF70CFE2168082048611E
:1052F00000F033F880011ED5206802F027FC074635
:1053000002E000F02BF96D1CA06885420FD227FA4D
:1053100005F0C007F7D506EB451000F5A060E9B22F
:10532000006800042046ECD500F054F8EBE7216853
:105330004FF00070486100F010F8C0060CD52068EE
:10534000816921F010018161204600F0B6F92068E2
:10535000816941F010018161F1BD206802F06ABAF3
:1053600010B500F011F801D1022010BD012084F821
:105370007C02206802F0FAF92068012102F0EAFAC2
:10538000002084F87C0210BD044694F87C020128B9
:10539000704710B5FFF7F8FF01D1022010BD0120C2
:1053A00084F87C02206802F00FFCE9E7006802F054
:1053B000B8BA28225143084490F848007047282280
:1053C00051430844806B7047006802F0EEBA0068F1
:1053D00002F0DFBA2DE9F04104468846206800EB70
:1053E000481000F5A066282000FB08F02518B068DA
:1053F000400705F1440704D50420B06000F09AF896
:1054000020E0B068800648BF20201AD4B0680007AA
:105410000AD500F08FF8052078711020B0600820C0
:10542000B06000F098F80DE0B06840050AD500F0D3
:1054300081F800F090F81020B060082078714FF4E7
:105440008060B060B068800504D500F07FF84FF44C
:1054500000706CE0B0682B35C00721D50120787151
:10546000002038600120B0602878010018BF0228B1
:1054700004D100F06BF81020B0600CE003280AD1D2
:10548000306840F000503060012201203871414600
:105490002046FEF742FD687C80F00100687447E01A
:1054A000B068800722D5F06820F00200F0607879BB
:1054B000012814BF052838710FD0062818BF082806
:1054C0000BD13868411C3960042823BF00203860A4
:1054D00004200220387100F032F80220B06041460A
:1054E0003A792046BDE8F041FEF717BDB0680006E6
:1054F0000BD500F01FF841463868401C3860062084
:10550000787100F028F8802011E0B068C0060FD54F
:105510002878032802D100F019F805E0002818BF08
:10552000022801D100F00BF8032078711020B06040
:10553000BDE8F081F06840F00200F060704730682C
:1055400020F0804040F0004030607047F06840F04C
:105550000200F0604146206802F0FDBA38B50268EA
:1055600002EB411202F5A064A268520706D504209E
:10557000A060E06840F00200E06031BD28224A43AC
:10558000024402F14405A36829329B060BD520236F
:10559000A3601278012A05D104226A7100F086F80E
:1055A0000220287131BDA3685B0605D504226A710B
:1055B00000F07AF8402029E0A3689B0504D500F0AC
:1055C00075F84FF4007021E0A368DB0704D500F004
:1055D0006BF80120A06026E0A3681B0705D5082210
:1055E000A26000F063F805201DE0A368DB0605D586
:1055F00000F05AF803206871102007E0A3681B062A
:1056000006D500F053F8062068718020A06031BDF7
:10561000A3685B0509D500F049F81020A0604FF49D
:105620008060A0600820687131BDA3689B073AD5EF
:10563000E36823F00203E3606B79012B08D12B713F
:105640009378022B28D1137D83F00103137523E097
:10565000032B08BF022209D0042B04D102232B7193
:105660000023137018E0052B02D105222A7113E0E4
:10567000062B18BF082B0FD12A68531C2B60042A55
:1056800023BF00222A60042202222A71226822F00B
:10569000804242F0004222600222A2602A79BDE8E4
:1056A0003840FEF73ABC31BD00222A60E26842F081
:1056B0000202E260006802F04EBAF8B501460868DE
:1056C000026A02F00F05C2F30A16C2F34342022A2D
:1056D000044622D10EB328226A43114401F1300757
:1056E0003968D1B1324602F08DF838680C4A30443E
:1056F0003860B8683018B86004EB451000F5A06059
:105700000169114209D0016821F0804141F0004156
:105710000160387B80F001003873F1BD00000000AB
:105720000000F81F30B5044683B0206800210191C5
:10573000009100F588652968019129680091009918
:1057400021F02E010091019989070DD50199C90712
:1057500006D5816921F0005181612046FEF7D5FB15
:10576000009840F002000090019800071DD50098B5
:1057700040F0080000902068019949070DD5019973
:1057800001F4C021B1F5802F0CBF0221012102F0EC
:10579000B1F82046FEF7B9FB07E0296821F02E0199
:1057A0002960816941F0005181610198800603D52B
:1057B000009840F0200000900098286037BD00005D
:1057C000583A5C5F5F4A617A5C50726F6A656374D5
:1057D000735C466574636F5C434253313178782063
:1057E0002820457874726163746F7220562B2029CB
:1057F0005C436F64655C426F6F744C6F616465728B
:105800005C57535C447269766572735C53544D33D4
:1058100032463178785F48414C5F447269766572F0
:105820005C5372635C73746D3332663178785F6891
:10583000616C5F6863642E630000000070B5674CA4
:105840009CB0206800F07F40B0F1005F1EBF206870
:1058500000F07F40B0F1805F22D1614D6068286028
:105860005DA63046FEF710FB20682B680FF284120D
:1058700001900094642102A8FEF740FE02A8FEF702
:1058800003FB286868600FF2B810FEF7FDFA304697
:10589000FEF7FAFA72B6206880F3088868688047D5
:1058A0001CB070BD30B59BB002F0C8F900F042F8F2
:1058B00002F0D6F902F046FA02F0A8FA01F058FA1E
:1058C00002F0F4FA0821474802F02CFC00B1FEE790
:1058D00041A42046FEF7DBFA0FF284152846FEF7B6
:1058E000D6FA2046FEF7D3FA0FF2FC130FF2C012DD
:1058F000642101A8FEF702FE01A8FEF7C8FA0FF224
:1059000024200FF214230FF2E8120090642101A862
:10591000FEF7F4FD01A8FEF7BAFA2046FEF7B7FA43
:105920002846FEF7B4FA03F0B1F8FDF74FFEFCF796
:105930008FFBFEE700B59BB001200D900021109178
:105940004FF480300F900121169012914FF4E01027
:10595000002117900E9100200221189015910DA89A
:1059600001F06CFA00B1FEE70F2000900221022046
:105970000190002002904FF480600390002004907A
:10598000684601F0F3FC00B1FEE71020059000200E
:105990000C9005A803F080FA00B1FEE701F028FEA4
:1059A0004FF47A71B0FBF1F0FFF725FB0420FFF70D
:1059B00036FB0D490120086000220F214FF0FF3017
:1059C000FFF7D6FA1BB000BD00680849884208BF3F
:1059D00003F0DEBB7047000020000000000001085B
:1059E000FCB90020F8B800207000424200140040CA
:1059F000FEE770474A756D70416464726573732089
:105A00003A20253038582C20202020464C4153483D
:105A10005F555345525F53544152545F4144445281
:105A2000203A20253038582C202020202053746123
:105A3000636B5374617274203A202530385800002B
:105A40004A756D70696E6720546F204170706C6983
:105A5000636174696F6E202E2E2E2E2E00000000C2
:105A60002D2D2D2D2D2D2D2D2D2D2D2D2D2D2D2D66
:105A70002D2D2D2D2D2D2D2D2D2D2D2D2D2D2D2D56
:105A80002D2D2D2D2D2D2D2D2D2D2D2D2D2D2D2D46
:105A90002D2D2D2D2D2D2D2D2D2D2D2D2D2D2D2D36
:105AA0002D2D2D2D2D2D2D2D2D2D2D2D2D2D2D0053
:105AB00020202020202020202020202020202043C3
:105AC00042533131787820426F6F74204C6F61649B
:105AD00065722C20496E697469616C697A6564200D
